:100000000C942A000C9447000C9447000C94470071
:100010000C9447000C9447000C9447000C94470044
:100020000C9447000C9447000C9447000C94470034
:100030000C9447000C9447000C9447000C94470024
:100040000C9447000C9447000C9447000C94470014
:100050000C94470011241FBECFE5D8E0DEBFCDBF12
:1000600010E0A0E6B0E0EAE2FFE002C005900D92E9
:10007000A63AB107D9F720E0A6EAB0E001C01D9288
:10008000A63EB207E1F70E944E040C9493070C942D
:1000900000001F93CF93DF9390E0FC01EE0FFF1F52
:1000A0008E0F9F1FFC01E257FF4FC081D18112814B
:1000B00070E0FB01EE0FFF1F6E0F7F1FFB01EA5880
:1000C000FF4FA081B18162814423A9F0388181E092
:1000D00090E0AC01012E01C0440F0A94EAF7242FEE
:1000E0002095232328832C91062E01C0880F0A9483
:1000F000EAF7822B8C9385E38A95F1F7000048811B
:1001000081E090E09C0101C0220F1A95EAF7242BB0
:1001100028832C9101C0880F6A95EAF78095822385
:100120008C93DF91CF911F910895EF92FF921F93CF
:10013000CF93DF9386EAE82E80E0F82E10E0C0E04F
:10014000D0E0F701EC0FFD1F40816C2F812F0E9442
:1001500049002196C830D105A1F71F5F88E0E80E5D
:10016000F11C183061F7DF91CF911F91FF90EF9054
:1001700008950F931F93CF93DF93D62F8C0160E0E8
:1001800070E0CB01C0E0CD1751F0F8012191319121
:10019000419151918F010E94D204CF5FF4CFDF9142
:1001A000CF911F910F9108954F925F926F927F921E
:1001B0008F929F92AF92BF92CF92DF92EF92FF9277
:1001C0000F931F93CF93DF93F82EC92FD62F0E9442
:1001D00020075C016D2F8F2D9C2F0E94B9002B01F1
:1001E0003C010F2D1C2FC12CD12C7601C0E0450104
:1001F000BB0CAA08BB08CD1731F1F80161917191D0
:10020000819191918F01A30192010E943E0520E00E
:100210003EEF4FEF56E40E9443069B01AC01C7013D
:10022000B6010E94D2046B017C01C501B4010E9499
:10023000B2059B01AC01C701B6010E943E0618162B
:1002400014F0CF5FD8CF8C2FDF91CF911F910F91FA
:10025000FF90EF90DF90CF90BF90AF909F908F90E6
:100260007F906F905F904F9008958FEF8ABB87BB10
:1002700084BB81BB1BBA18BA15BA12BA8D988A987A
:1002800080B390E00E942507959A929A0895CF93A3
:10029000DF93CDB7DEB7AC01C957DF4F3881C75800
:1002A000D040C857DF4F8881C858D040C757DF4F6C
:1002B0002881C958D040C657DF4F9881CA58D040CE
:1002C000829904C0222319F031E001C021E0859910
:1002D00004C0992319F081E001C091E0C957DF4FB4
:1002E0003883C758D040C857DF4F8883C858D0409C
:1002F000C757DF4F2883C958D040C657DF4F988370
:10030000CA58D04088E8FE013596DA0101900D9276
:100310008A95E1F7CA01DF91CF910895FC0190E041
:100320008081883021F09F5F32969034C9F78FEF3B
:10033000890F0895AC0142585F4FFC01228128309B
:1003400049F0261303C02381271731F00296841742
:10035000950799F780E0089581E008958F929F9224
:10036000AF92BF92CF92DF92EF92FF920F931F93C3
:10037000CF93DF93CDB7DEB7C054D1090FB6F89451
:10038000DEBF0FBECDBFFE01B1969F01205E3F4F85
:100390006F0140E050E060E071E44193519361935C
:1003A00071932E173F07C9F78C015C0180E8A80EF6
:1003B000B11C7801F7018081883061F468E0C601E2
:1003C0000E94D400F82EFE01319680E090E0A0E873
:1003D000BFE321C088248394912C8C0E9D1EF4E0F1
:1003E0008F9F800C911C112420E030E040E85FE3F7
:1003F000F40160A171A182A193A10E94D104F40132
:1004000060A371A382A393A3F2E0EF0EF11CAE14DC
:10041000BF0481F6D3CF81939193A193B193EC154F
:10042000FD05C9F7F8018081883011F1F8121BC071
:100430008181CC24C394D12CCC0EDD1EF4E08F9F9F
:10044000C00CD11C112420E030E040E85FE3F6014D
:1004500060817181828193810E94D104F601608361
:100460007183828393830E5F1F4FA016B106D1F66E
:1004700068E0CE0101960E94D400982F8F2DC05CB9
:10048000DF4F0FB6F894DEBF0FBECDBFDF91CF9127
:100490001F910F91FF90EF90DF90CF90BF90AF90A2
:1004A0009F908F900895EF92FF920F931F93CF9399
:1004B000DF93CDB7DEB7C858D1090FB6F894DEBFC9
:1004C0000FBECDBF8C0184E089838A83FE01319603
:1004D0009E0121583F4F7F0188E0828383833296BB
:1004E000E217F307D1F7C7010E94AE01CF57DF4FE4
:1004F00099838883C158D040CD57DF4F1882C358A5
:10050000D040CC57DF4F1882C458D040CB57DF4F74
:100510001882C558D040CA57DF4F1882C658D040FD
:10052000C957DF4F19821882C758D04088E8F701B1
:10053000D80101900D928A95E1F7C801C857DF4FA5
:100540000FB6F894DEBF0FBECDBFDF91CF911F91E4
:100550000F91FF90EF90089546EA50E028E031E0D7
:1005600080E090E0FA01E80FF91F308301968830AF
:100570009105C1F72150485F5F4F2111F1CF0895D8
:1005800046EA50E028E080E090E0FA01E80FF91F29
:100590001082019688309105C1F72150485F5F4F66
:1005A0002111F1CF0895CF93DF93C5E00E94C002DF
:1005B000DAE00E949500D150E1F70E94AC02DAE047
:1005C0000E949500D150E1F7C15081F7DF91CF91A2
:1005D00008950F931F93CF93DF93CDB7DEB7C8581D
:1005E000D1090FB6F894DEBF0FBECDBF8C01CF5E30
:1005F000DE4F8881C151D140882379F0CB5EDE4F38
:1006000088819981C551D140039683709927CB5E2B
:10061000DE4F99838883C551D140CE5EDE4F8881FD
:10062000C251D140882379F0CB5EDE4F8881998119
:10063000C551D140019683709927CB5EDE4F9983D7
:100640008883C551D140CE5EDE4F1882C251D14061
:10065000CF5EDE4F1882C151D140CD5EDE4F188291
:10066000C351D140CC5EDE4F1882C451D140CE017F
:1006700081579F4F0E948E01E82FF0E0DF01AA0F03
:10068000BB1F2FE830E02C0F3D1FA20FB31F9C9122
:1006900011964C918823E1F0282F30E0B901660FC4
:1006A000771FAFE8B0E0AC0FBD1F6A0F7B1FD90109
:1006B0001197AA0FBB1F2FE830E02C0F3D1FA20F90
:1006C000B31F2D913C91DB012D933C938150E2CFE0
:1006D000CB5EDE4F28813981C551D140C157DF4FF4
:1006E0008881CF58D0402130310581F040F0223050
:1006F000310599F023303105D9F4815008C0C05735
:10070000DF4F8881C059D04081500DC08F5FC157E5
:10071000DF4F8883CF58D0400BC0C057DF4F888150
:10072000C059D0408F5FC057DF4F8883C059D04039
:10073000C157DF4F2881CF58D040C15FDE4F88813D
:10074000CF50D140281320C0C057DF4F2881C05957
:10075000D040C05FDE4F8881C051D140281314C003
:100760003196EE0FFF1F2FE830E02C0F3D1FE20FF8
:10077000F31F90834183C9010E94AE01C15FDE4F28
:1007800099838883CF50D140C157DF4F68817981E9
:10079000CF58D040CE0181579F4F0E949A018823A5
:1007A00081F00E94D302CE0101960E94530288E894
:1007B000FE013196DE01A157BF4F01900D928A953F
:1007C000E1F7C157DF4F8881CF58D040883038F4E7
:1007D000C057DF4F8881C059D040883080F00E94D8
:1007E000D302CE0101960E94530288E8FE013196A1
:1007F000DE01A157BF4F01900D928A95E1F788E87D
:10080000FE01E157FF4FD80101900D928A95E1F763
:10081000C801C857DF4F0FB6F894DEBF0FBECDBF7B
:10082000DF91CF911F910F910895CF93DF93CDB7B3
:10083000DEB70E94C002DE0115969E012B573F4F86
:1008400091E08C918830B8F0CA57DF4FE881C658E4
:10085000D040CB57DF4F8881C558D04048E0E49F57
:10086000F0011124EA55FF4FE80FF11D81E080836C
:10087000DF91CF9108951196EC911197E83020F710
:1008800048E0E49FF0011124EA55FF4FE80FF11D05
:1008900090831296A217B307A1F6D6CFCF93DF931A
:1008A000CDB7DEB7C051D1400FB6F894DEBF0FBE52
:1008B000CDBF0E94C002CE0101960E9453020E9449
:1008C00035018DB79EB7885891090FB6F8949EBF31
:1008D0000FBE8DBFADB7BEB7119688E8FE01319649
:1008E00001900D928A95E1F7CE0187579F4F0E94A4
:1008F000E90288E8FE01E757FF4FDE0111960190FB
:100900000D928A95E1F78DB79EB788579F4F0FB626
:10091000F894DEBF0FBECDBF885891090FB6F8948A
:100920009EBF0FBE8DBFADB7BEB7119688E8FE0162
:10093000319601900D928A95E1F70E9415040FB649
:10094000F894DEBF0FBECDBF14E10E9495008DB7B5
:100950009EB7885891090FB6F8949EBF0FBE8DBF01
:10096000ADB7BEB7119688E8FE01319601900D92A1
:100970008A95E1F7CE0187579F4F0E94470188E88B
:10098000FE01E757FF4FDE01119601900D928A9507
:10099000E1F711500FB6F894DEBF0FBECDBFA9F638
:1009A00090CF5058BB27AA270E94E9040C94040654
:1009B0000E94F60538F00E94FD0520F039F49F3FB3
:1009C00019F426F40C94F3050EF4E095E7FB0C946F
:1009D000ED05E92F0E94150658F3BA176207730751
:1009E0008407950720F079F4A6F50C9437060EF4E9
:1009F000E0950B2EBA2FA02D0B01B90190010C012F
:100A0000CA01A0011124FF27591B99F0593F50F446
:100A1000503E68F11A16F040A22F232F342F44279E
:100A2000585FF3CF469537952795A795F040539596
:100A3000C9F77EF41F16BA0B620B730B840BBAF066
:100A40009150A1F0FF0FBB1F661F771F881FC2F7D1
:100A50000EC0BA0F621F731F841F48F487957795E5
:100A60006795B795F7959E3F08F0B0CF9395880F9F
:100A700008F09927EE0F9795879508950E945205E3
:100A80000C9404060E94FD0558F00E94F60540F003
:100A900029F45F3F29F00C94ED0551110C943806B0
:100AA0000C94F3050E94150668F39923B1F35523BE
:100AB00091F3951B550BBB27AA2762177307840771
:100AC00038F09F5F5F4F220F331F441FAA1FA9F307
:100AD00035D00E2E3AF0E0E832D091505040E695F5
:100AE000001CCAF72BD0FE2F29D0660F771F881F56
:100AF000BB1F261737074807AB07B0E809F0BB0B49
:100B0000802DBF01FF2793585F4F3AF09E3F51055C
:100B100078F00C94ED050C9438065F3FE4F3983EB2
:100B2000D4F3869577956795B795F7959F5FC9F745
:100B3000880F911D9695879597F90895E1E0660FC6
:100B4000771F881FBB1F621773078407BA0720F03F
:100B5000621B730B840BBA0BEE1F88F7E0950895A8
:100B6000E89409C097FB3EF4909580957095619547
:100B70007F4F8F4F9F4F9923A9F0F92F96E9BB27FD
:100B80009395F695879577956795B795F111F8CF79
:100B9000FAF4BB0F11F460FF1BC06F5F7F4F8F4FE4
:100BA0009F4F16C0882311F096E911C0772321F0DA
:100BB0009EE8872F762F05C0662371F096E8862F72
:100BC00070E060E02AF09A95660F771F881FDAF7C9
:100BD000880F9695879597F9089597F99F6780E80C
:100BE00070E060E008959FEF80EC089500240A947F
:100BF0001616170618060906089500240A941216F8
:100C00001306140605060895092E0394000C11F42A
:100C1000882352F0BB0F40F4BF2B11F460FF04C0D7
:100C20006F5F7F4F8F4F9F4F089557FD9058440F30
:100C3000551F59F05F3F71F04795880F97FB991F3B
:100C400061F09F3F79F087950895121613061406F8
:100C5000551FF2CF4695F1DF08C016161706180685
:100C6000991FF1CF86957105610508940895E89460
:100C7000BB2766277727CB0197F908950E94B00616
:100C800008F48FEF08950E9456060C9404060E9403
:100C9000F60538F00E94FD0520F0952311F00C9424
:100CA000ED050C94F30511240C9438060E941506EA
:100CB00070F3959FC1F3950F50E0551F629FF001AF
:100CC000729FBB27F00DB11D639FAA27F00DB11DC8
:100CD000AA1F649F6627B00DA11D661F829F222751
:100CE000B00DA11D621F739FB00DA11D621F839FD8
:100CF000A00D611D221F749F3327A00D611D231FAE
:100D0000849F600D211D822F762F6A2F11249F57FB
:100D100050409AF0F1F088234AF0EE0FFF1FBB1FFE
:100D2000661F771F881F91505040A9F79E3F5105BD
:100D300080F00C94ED050C9438065F3FE4F3983E88
:100D4000D4F3869577956795B795F795E7959F5F67
:100D5000C1F7FE2B880F911D9695879597F90895F9
:100D6000990F0008550FAA0BE0E8FEEF16161706BC
:100D7000E807F907C0F012161306E407F50798F024
:100D8000621B730B840B950B39F40A2661F0232B3D
:100D9000242B252B21F408950A2609F4A140A695B9
:100DA0008FEF811D811D08958F929F92AF92BF9208
:100DB000CF92DF92EF92FF92CF93DF93EC016881A5
:100DC00079818A819B81611571058105910521F4E5
:100DD00064E279ED8BE597E02DE133EF41E050E0FF
:100DE0000E94300749015A019B01AC01A7EAB1E416
:100DF0000E944F076B017C01ACEEB4EFA50194019A
:100E00000E945D07DC01CB018C0D9D1DAE1DBF1D39
:100E1000B7FF03C00197A109B04888839983AA83CB
:100E2000BB839F77DF91CF91FF90EF90DF90CF90C2
:100E3000BF90AF909F908F9008950E94D406089520
:100E400080E690E00E94D4060895A0E0B0E0809390
:100E5000600090936100A0936200B09363000895D6
:100E6000052E97FB1EF400940E94470757FD07D0FC
:100E70000E94620707FC03D04EF40C94470750957C
:100E80004095309521953F4F4F4F5F4F0895909576
:100E90008095709561957F4F8F4F9F4F08950E9469
:100EA0008407A59F900DB49F900DA49F800D911D68
:100EB00011240895B7FF0C944F070E944F07821B1F
:100EC000930B0895A1E21A2EAA1BBB1BFD010DC0B6
:100ED000AA1FBB1FEE1FFF1FA217B307E407F507EA
:100EE00020F0A21BB30BE40BF50B661F771F881FC6
:100EF000991F1A9469F760957095809590959B015C
:100F0000AC01BD01CF010895A29FB001B39FC00104
:100F1000A39F700D811D1124911DB29F700D811D25
:0A0F20001124911D0895F894FFCFED
:100F2A0001000000300005300002320005320002E4
:100F3A00310005310002380000380001380002385B
:100F4A0000033800043800053800063800073B0063
:100F5A00013B00023B00033B00043500063500015B
:060F6A0035000032000713
:00000001FF
