:100000000C942A000C9447000C9447000C94470071
:100010000C9447000C9447000C9447000C94470044
:100020000C9447000C9447000C9447000C94470034
:100030000C9447000C9447000C9447000C94470024
:100040000C9447000C9447000C9447000C94470014
:100050000C94470011241FBECFE5D8E0DEBFCDBF12
:1000600010E0A0E6B0E0EAECF1E002C005900D92ED
:10007000A039B107D9F720E0A0E9B0E001C01D9296
:10008000A03DB207E1F70E94D7000C94E3000C9466
:100090000000CF93DF9390E0FC01EE0FFF1F8E0F67
:1000A0009F1FFC01E858FF4F2081318170E0DB0188
:1000B000AA0FBB1F6A0F7B1FDB01A05ABF4FCD9158
:1000C000DC91119712967C91D9016C9181E090E0BE
:1000D000AC01028002C0440F551F0A94E2F7542F6E
:1000E000509556235C93588101C0880F7A95EAF7A2
:1000F000952F982B9883BAE1BA95F1F700C0F901D2
:100100009081492B40839881809589238883DF9152
:10011000CF91089540E950E028E080E090E0FA01B6
:10012000E80FF91F1082019688309105C1F7215020
:10013000485F5F4F2111F1CF089540E950E028E07A
:1001400031E080E090E0FA01E80FF91F308301967A
:1001500088309105C1F72150485F5F4F2111F1CFE1
:100160000895EF92FF921F93CF93DF9380E9E82EDB
:1001700080E0F82E10E0C0E0D0E0F701EC0FFD1FAA
:100180008081882321F06C2F812F0E9449002196C5
:10019000C830D10591F71F5F88E0E80EF11C1830D8
:1001A00051F7DF91CF911F91FF90EF9008950E943A
:1001B0008A000E949D008FEF8ABB87BB84BB81BBF6
:0A01C0000E94B100FDCFF894FFCFBC
:1001CA0038000038000138000238000338000438CB
:1001DA0000053800063800073B00013B00023B00DF
:1001EA00033B0004350006350001350000320007E4
:00000001FF
