:100000000C942A000C9447000C9447000C94470071
:100010000C9447000C9447000C9447000C94470044
:100020000C9447000C9447000C9447000C94470034
:100030000C9447000C9447000C9447000C94470024
:100040000C9447000C9447000C9447000C94470014
:100050000C94470011241FBECFE5D8E0DEBFCDBF12
:1000600010E0A0E6B0E0E8E8F3E002C005900D92F1
:10007000A639B107D9F720E0A6E9B0E001C01D928A
:10008000A63DB207E1F70E9466010C94C2010C94F0
:100090000000CF93DF93CDB7DEB7C458D1090FB6B8
:1000A000F894DEBF0FBECDBF19821A82DE01119611
:1000B000AE0141585F4FFD0128E012962C93129734
:1000C00013962C9313971296A417B507B1F724E053
:1000D000CF57DF4F2883C158D04025E0CE57DF4FA0
:1000E0002883C258D040CD57DF4F1882C358D04024
:1000F000CC57DF4F1882C458D04024E8DC0101906F
:100100000D922A95E1F7CC57DF4F0FB6F894DEBF7A
:100110000FBECDBFDF91CF9108951F93CF93DF9393
:1001200090E0FC01EE0FFF1F8E0F9F1FFC01E258B5
:10013000FF4FC081D181128170E0FB01EE0FFF1FE4
:100140006E0F7F1FFB01EA59FF4FA081B1816281D1
:100150004423A9F0388181E090E0AC01012E01C078
:10016000440F0A94EAF7242F2095232328832C9107
:10017000062E01C0880F0A94EAF7822B8C934881DF
:1001800081E090E09C0101C0220F1A95EAF7242B30
:1001900028832C9101C0880F6A95EAF78095822305
:1001A0008C93DF91CF911F910895EF92FF921F934F
:1001B000CF93DF9386E9E82E80E0F82E10E0C0E0D0
:1001C000D0E0F701EC0FFD1F40816C2F812F0E94C2
:1001D0008D002196C830D105A1F71F5F88E0E80E99
:1001E000F11C183061F7DF91CF911F91FF90EF90D4
:1001F00008958FEF8ABB87BB84BB81BB1BBA18BA3B
:1002000015BA12BA0895CF93DF93CDB7DEB7AC011C
:100210009E819F5F2D812F5F2D839E8384E8FE0149
:100220003596DA0101900D928A95E1F7CA01DF91C6
:10023000CF91089546E950E028E080E090E0FA018F
:10024000E80FF91F1082019688309105C1F72150FF
:10025000485F5F4F2111F1CF0895CF93DF93CDB762
:10026000DEB70E941A01DE0115969E012B573F4F03
:1002700091E08C918830B8F0CA57DF4FE881C658BA
:10028000D040CB57DF4F8881C558D04048E0E49F2D
:10029000F0011124EA56FF4FE80FF11D81E0808341
:1002A000DF91CF9108951196EC911197E83020F7E6
:1002B00048E0E49FF0011124EA56FF4FE80FF11DDA
:1002C00090831296A217B307A1F6D6CFCF93DF93F0
:1002D000CDB7DEB7C850D1400FB6F894DEBF0FBE21
:1002E000CDBF0E941A01CE0101960E9449000E94D2
:1002F000F9008DB79EB7845891090FB6F8949EBF48
:100300000FBE8DBFADB7BEB7119684E8FE01319622
:1003100001900D928A95E1F7CE018B579F4F0E9475
:10032000030184E8FE01EB57FF4FDE0111960190B7
:100330000D928A95E1F78DB79EB78C579F4F0FB6F8
:10034000F894DEBF0FBECDBF845891090FB6F89464
:100350009EBF0FBE8DBFADB7BEB7119684E8FE013C
:10036000319601900D928A95E1F70E942D010FB60A
:10037000F894DEBF0FBECDBF16E90E94D500115024
:08038000E1F7B7CFF894FFCFBD
:100388003200053200023800003800013800023817
:1003980000033800043800053800063800073B0021
:1003A800013B00023B00033B000435000635000119
:0603B800350000320007D1
:00000001FF
